:04000000C5EF0CF04C
:100F000000D41B9E1B8E1B0015B415C81B34181073
:100F10001C081C001CF81BF01BE81BE01BBC1BA0E2
:100F200018002350800B2C6E23502324326E22AEE7
:100F30009CEF07F09EEF07F09FEF07F032803250F2
:100F4000D8B4A5EF07F0A7EF07F0BAEF07F0322803
:100F5000D8A4ADEF07F0AFEF07F0B7EF07F0000E42
:100F6000206E000E216E000E226E000E236E228E69
:100F7000C2EF07F0000E206E000E216E000E226EF2
:100F8000000E236E2750800B2C1A27502724316E19
:100F900026AECDEF07F0CFEF07F0D0EF07F03180AE
:100FA0003150D8B4D6EF07F0D8EF07F0EBEF07F0E9
:100FB0003128D8A4DEEF07F0E0EF07F0E8EF07F004
:100FC000000E246E000E256E000E266E000E276E9B
:100FD000268EF3EF07F0000E246E000E256E000E35
:100FE000266E000E276E3150D8B4F9EF07F0FBEFF4
:100FF00007F003EF08F03250D8A401EF08F003EF38
:1010000008F00DEF08F0000E206E000E216E000EAD
:10101000226E000E236EA5EF09F026502002F3CFBA
:1010200037F0F4CF38F037502D6E2E6A2F6A306AC1
:101030003850336E346A356A366A25502102F3CF50
:1010400037F0F4CF38F037502D26000E2E222F2205
:10105000302238503326000E3422352236222450D6
:101060002202F3CF37F0F4CF38F037502D26000EA0
:101070002E222F22302238503326000E34223522E1
:1010800036222FC030F02EC02FF02DC02EF02D6A4A
:1010900024502102F3CF37F0F4CF38F037502D260B
:1010A00038502E22000E2F22000E30222550200212
:1010B000F3CF37F0F4CF38F037502D2638502E22AA
:1010C000000E2F22000E30222FC030F02EC02FF045
:1010D0002DC02EF02D6A24502002F3CF37F0F4CF2C
:1010E00038F037502D2638502E22000E2F22000EB9
:1010F000302226502102F3CF37F0F4CF38F03750AA
:10110000332638503422000E3522000E3622255068
:101110002202F3CF37F0F4CF38F03750332638506F
:101120003422000E3522000E362226502202F3CF42
:1011300037F0F4CF38F03750286E3850296E2A6ACD
:101140002B6A2AC02BF029C02AF028C029F0286A6F
:1011500028503326295034222A5035222B5036224B
:101160002DC028F02EC029F02FC02AF030C02BF05F
:10117000190EC0EF08F0D8902B322A3229322832CB
:10118000E82EBBEF08F028503326295034222A508D
:1011900035222B5036222FC030F02EC02FF02DC01C
:1011A0002EF02D6A315032C028F0296A2826000E10
:1011B0002922820E2824376EFF0E2920386EF6EF82
:1011C00008F0D890333634363536363630AEEBEF5D
:1011D00008F0EDEF08F0EEEF08F03380D8902D36F0
:1011E0002E362F3630363706D8A0380635AEFBEF10
:1011F00008F0FDEF08F0E1EF08F0000E316E30AEC0
:1012000004EF09F006EF09F02AEF09F0FF0E2D14A4
:10121000286EFF0E2E14296EFF0E2F142A6E7F0EDD
:1012200030142B6E285029102A102B10D8B41BEF25
:1012300009F01DEF09F021EF09F0010E316E2AEFE0
:1012400009F033A026EF09F028EF09F02AEF09F0A2
:101250001DEF09F03150D8B430EF09F032EF09F04A
:1012600056EF09F0010E3326000E342235223622C5
:1012700036A03DEF09F03FEF09F056EF09F033C01B
:1012800028F034C029F035C02AF036C02BF02B34BA
:101290002B322A322932283228C033F029C034F0C8
:1012A0002AC035F02BC036F0374A382A38BE61EFF5
:1012B00009F0385008E13728D8A061EF09F063EF52
:1012C00009F06DEF09F0000E336E000E346E800EE3
:1012D000356E7F0E366E9BEF09F038BE7AEF09F05F
:1012E000385006E13704D8B078EF09F07AEF09F00A
:1012F00086EF09F0000E336E000E346E000E356E70
:10130000000E366E000E2C6E9BEF09F037C032F0E7
:10131000FF0E3316FF0E34167F0E3516000E3616EE
:1013200032A095EF09F097EF09F098EF09F0358EAC
:10133000D8903230366E2C50361233C020F034C084
:1013400021F035C022F036C023F012001A6E1A5078
:10135000D8B4ADEF09F0AFEF09F0D1EF09F015BE49
:10136000B6EF09F0B4EF09F0D1EF09F012C016F0B2
:1013700013C017F014C018F015C019F0161E171E70
:10138000181E191E162A000E17221822192216C01E
:101390001CF017C01DF018C01EF019C01FF0D9EFC7
:1013A00009F012C01CF013C01DF014C01EF015C0CF
:1013B0001FF01250131014101510D8A4E2EF09F00A
:1013C000E4EF09F0EEEF09F0000E126E000E136E5E
:1013D000000E146E000E156E7FEF0AF0960E1B6E57
:1013E000F8EF09F01B2AD8901F321E321D321C3232
:1013F000000E1C14166E000E1D14176E000E1E1427
:10140000186EFE0E1F14196E1650171018101910B2
:10141000D8A40DEF0AF00FEF0AF0F2EF09F01DEF7C
:101420000AF01B2A010E1C26000E1D221E221F225E
:10143000D8901F321E321D321C32000E1C14166E44
:10144000000E1D14176E000E1E14186EFF0E1F14D2
:10145000196E1650171018101910D8A432EF0AF090
:1014600034EF0AF011EF0AF03CEF0AF01B06D890B7
:101470001C361D361E361F361EBE41EF0AF043EFE6
:101480000AF04BEF0AF0020E1B6049EF0AF04BEF37
:101490000AF036EF0AF01BB050EF0AF052EF0AF0F4
:1014A00053EF0AF01E9ED8901B321BC016F0176A2D
:1014B000186A196A16C019F0186A176A166A16505F
:1014C0001C1217501D1218501E1219501F121A50BC
:1014D000D8B46DEF0AF06FEF0AF077EF0AF015BE9F
:1014E00076EF0AF074EF0AF077EF0AF01F8E1CC057
:1014F00012F01DC013F01EC014F01FC015F0120032
:10150000A4EC0DF00009D8B488EF0AF08AEF0AF0D5
:10151000BDEF0AF098EF0AF008EC0EF0D9EF0AF0F0
:1015200004EC0EF0D9EF0AF0FCEC0DF0D9EF0AF064
:1015300072C00AF073C00BF002D8A9EF0AF00500E0
:10154000FA6E00016651FD6E6751FE6EFF6AFA5039
:1015500012000C6E0D6A0D50000AD8B4B2EF0AF0FA
:1015600094EF0AF00C50000AD8B48CEF0AF0010A8C
:10157000D8B490EF0AF094EF0AF0000183917DC097
:10158000D9FF7EC0DAFF7D4B7E2BDF500CEC0EF0D6
:1015900000017F07D8A080077F518011D8A4D3EF26
:1015A0000AF0D5EF0AF0D8EF0AF0060ED9EF0AF0EC
:1015B000030E12001EEC0EF07DC0D9FF7EC0DAFFD4
:1015C000DF6E00017D4B7E2B7F07D8A080077F5107
:1015D0008011D8B4EEEF0AF0F0EF0AF0F5EF0AF060
:1015E00014EC0EF0050E24EF0BF0838700EF0BF0E8
:1015F000F0EC0DF024EF0BF0F4EC0DF024EF0BF019
:101600006CC00AF06DC00BF002D810EF0BF00500B3
:10161000FA6E6051FD6E6151FE6EFF6AFA50120063
:101620000C6E0D6A0D50000AD8B419EF0BF0FCEFE8
:101630000AF00C50000AD8B4F8EF0AF0010AD8B446
:10164000F8EF0AF0FCEF0AF01200016E010E026ED4
:10165000000183B52EEF0BF030EF0BF06AEF0BF0CB
:1016600001C07CF08393838583910E0E816F010E00
:101670007B6FF40E7A6F8387200E606F1C0E616F94
:10168000000E6C6F000E6D6F200E626F1C0E636F8C
:10169000000E6E6F000E6F6F200E646F1C0E656F74
:1016A000000E706F000E716F200E666F1C0E676F5C
:1016B000000E726F000E736F440E686F1C0E696F20
:1016C000000E746F000E756F1AEC0EF05DEC0DF0ED
:1016D000000E026E02501200056E01500210D8B4C6
:1016E00074EF0BF076EF0BF090EF0BF00550020D5E
:1016F000600EF324D96E000EF420DA6E01C0DEFF16
:1017000002C0DDFF0550020D6C0EF324D96E000EF1
:10171000F420DA6E03C0DEFF04C0DDFFA8EF0BF09B
:101720000550020D600EF324D96E000EF420DA6E1F
:10173000200EDE6E1C0EDD6E0550020D6C0EF324C5
:10174000D96E000EF420DA6E000EDE6E000EDD6E35
:101750001200400E25EC0BF0000E026E020E016E20
:10176000000E046E020E036E000E066E010E056E74
:10177000010E6EEC0DF0010E83EC0CF03D6E3D5051
:10178000126E136A146A156A000EA6EC09F012C0F4
:1017900020F013C021F014C022F015C023F0000E79
:1017A000246E000E256EA00E266E3F0E276E91EC65
:1017B00007F020C039F021C03AF022C03BF023C02E
:1017C0003CF012001AEC0EF0000183A1EAEF0BF0DE
:1017D000ECEF0BF0F9EF0BF0A4EC0DF00009D8B42E
:1017E000F4EF0BF0F6EF0BF0F9EF0BF00F0E00013A
:1017F000816F00018151020D010EF324F66E0F0E70
:10180000F420F76EF86A000EF8220900F5CF0EF00A
:101810000900F5CF0FF002D817EF0CF00500FA6EB3
:101820000E50FD6E0F50FE6EFF6AFA50120000015E
:10183000816F12000001838727EF0CF000EC0EF09F
:101840004FEF0CF01CEC0EF0030E4FEF0CF06CC0E1
:101850000AF06DC00BF002D837EF0CF00500FA6EFD
:101860006051FD6E6151FE6EFF6AFA5012000C6EFF
:101870000D6A0D50000AD8B440EF0CF04FEF0CF099
:101880000C50000AD8B41EEF0CF0010AD8B41EEFB9
:101890000CF0030AD8B422EF0CF04FEF0CF012005A
:1018A00000018391020E826F5EEF0CF000EC0EF0EF
:1018B00082EF0CF0FCEC0DF082EF0CF070C00AF03F
:1018C00071C00BF002D86EEF0CF00500FA6E645197
:1018D000FD6E6551FE6EFF6AFA5012000C6E0D6AC5
:1018E0000D50000AD8B477EF0CF05AEF0CF00C5002
:1018F000000AD8B456EF0CF0010AD8B456EF0CF039
:101900005AEF0CF01200106E010E116E000183B33D
:101910008CEF0CF08EEF0CF0A3EF0CF08383000E35
:10192000116E1050D8B497EF0CF099EF0CF09DEFBA
:101930000CF0010E816F9FEF0CF0020E816F28EC0E
:101940000EF07FEC0DF01150120020EE02F00A5064
:10195000D9260B50DA22DECF01F0DDCF02F00AC02B
:10196000D9FF0BC0DAFFDECF03F0DDCF04F04BEC84
:101970000DF0000E066E000E076E000E086E000ED3
:10198000096E8EEC0DF0000E1200540EF66E1C0E59
:10199000F76E000EF86E0900F5CF49F00900F5CF9B
:1019A0004AF000EE60F0240EEE6AE806FDE100EE7B
:1019B0003EF00B0EEE6AE806FDE10001B7EF0DF018
:1019C0000AC001F00BC002F0000E046E010E036E9F
:1019D0004BEC0DF0000E066E000E076E000E086E4A
:1019E000000E096E8EEC0DF0020E12000AC001F01E
:1019F0000BC002F0000E046E020E036E4BEC0DF0F5
:101A0000000E066E000E076E000E086E000E096EC8
:101A10008EEC0DF0000E12000AC001F00BC002F0B7
:101A2000000E046E010E036E4BEC0DF0000E066E00
:101A3000000E076E000E086E000E096E8EEC0DF0A3
:101A4000000E12000AC001F00BC002F0000E046E7E
:101A5000020E036E4BEC0DF0000E066E000E076ECC
:101A6000000E086E000E096E8EEC0DF0020E1200D4
:101A7000000E896E000E8A6E000E8B6EEF0E926E57
:101A8000936894681F0E0F015D6F070E5C6F000E68
:101A90005B6FF18E1200000183A751EF0DF053EF41
:101AA0000DF05CEF0DF001C07DF002C07EF003C0D0
:101AB0007FF004C080F083971200C6BA62EF0DF089
:101AC00064EF0DF06DEF0DF0000EC76E080EC66EE0
:101AD000000EC56E130EC86EC68A1200076E07C0D0
:101AE00046F0476A01C044F002C045F003C042F02E
:101AF00004C043F005C040F006C041F0120085EF7D
:101B00000DF0BFEC0DF0E2EC0BF0000183B38BEFB6
:101B10000DF08DEF0DF081EF0DF0120006C001F019
:101B200007C002F008C003F009C004F0000E6CEC1E
:101B30000BF01200000EC76E080EC66E000EC56ECA
:101B4000130EC86EC69A1200C5BCA9EF0DF0ACEF1B
:101B50000DF0010EADEF0DF0000E1200600ED36E11
:101B6000000ED26E000E9B6E000E9A6E1200D7EC25
:101B70000DF0A9EC0BF0B9EF0DF000EF00F09EA610
:101B8000C4EF0DF0C6EF0DF0BFEF0DF01200000135
:101B900083817C517C250CEC0EF0030E12000001B9
:101BA0008381D8807C350CEC0EF0050E12009AEC87
:101BB0000DF038EC0DF0AEEC0DF012000001839347
:101BC000000E826F0E0E12000001839120EC0EF0C9
:101BD000040E120000018393000E826F0E0E12009D
:101BE00017EC0EF0090E120017EC0EF00A0E1200A0
:101BF00014EC0EF0050E120024EC0EF0000E120094
:101C000026EC0EF0010E120026EC0EF0020E120071
:101C100026EC0EF0010E1200016E01C0C9FF120089
:101C2000000EC7B8010E1200C59AC5881200C58AF9
:101C3000C58812009E9612009E861200C95012009E
:101C4000C5861200030E1200C5841200C582120060
:061C5000C58012004000F7
:020000040020DA
:08000000FFFFFFFFFFFFFFFF00
:020000040030CA
:0E00000015087F7CFF8991FF0FC00FE00F40B5
:00000001FF
