:0400000062EF00F0BB
:100008004682FACF10F0FBCF11F0D9CF12F0DACF39
:1000180013F0F3CF14F0F4CF15F0F6CF16F0F7CFB6
:1000280017F0F8CF18F0F5CF19F0F2AC1EEF00F08A
:1000380020EF00F04CEF00F0A0A625EF00F027EF2E
:1000480000F03CEF00F0A1A62CEF00F02EEF00F03E
:100058003CEF00F002D83AEF00F00500FA6E445089
:10006800FD6E4550FE6EFF6AFA5012004CEF00F02C
:100078009DA641EF00F043EF00F04CEF00F09EA684
:1000880048EF00F04AEF00F04CEF00F02EEF00F0E0
:1000980019C0F5FF18C0F8FF17C0F7FF16C0F6FF24
:1000A80015C0F4FF14C0F3FF13C0DAFF12C0D9FF64
:1000B80011C0FBFF10C0FAFF46921100AEEF1AF014
:1000C800000E0001AC6F000EAB6F87C0BDF088C09A
:1000D800BEF089C0BFF08AC0C0F0C0BF78EF00F0A2
:1000E80076EF00F08EEF00F0000EAC6F010EAB6FF4
:1000F800BDC01AF0BEC01BF0BFC01CF0C0C01DF0D0
:1001080077EC1BF01AC0BDF01BC0BEF01CC0BFF0DE
:100118001DC0C0F0000E0001C46F000EC36FE3C025
:10012800AFF0E4C0B0F0AB51AC11D8A49EEF00F032
:10013800A0EF00F0A7EF00F042A4A5EF00F0A7EFB2
:1001480000F0C1EF00F0AB51AC11D8A4AEEF00F055
:10015800B0EF00F0B6EF00F0000E926F2B0E916F2B
:10016800BAEF00F0000E926F2D0E916F91C074F1EE
:10017800C34BC42BAF07D8A0B007BDC01AF0BEC090
:100188001BF0BFC01CF0C0C01DF083EC14F01A04B3
:100198001B10D8A4D2EF00F0D4EF00F02CEF01F040
:1001A800BF0E00018C6FFF0E8D6F8B518E6F8F6BA2
:1001B8008C518E278D518F238F510AE11A0E8E5D37
:1001C800D8A0E9EF00F0ECEF00F0010EEDEF00F041
:1001D800000E936F946B93519411D8B4F6EF00F01E
:1001E800F8EF00F006EF01F0740EC3251A6E010E49
:1001F800C4211B6EEC0E1C6EFF0E1D6EFEEC19F07A
:1002080012EF01F0740EC3251A6E010EC4211B6E85
:10021800F40E1C6EFF0E1D6EFEEC19F00001FD0EB3
:10022800AF27FF0EB02385C060F086C061F0740E62
:100238000001626F010E636FAFC064F0B0C065F07B
:100248003CEC16F060C085F061C086F094EF06F0D3
:10025800BDC01AF0BEC01BF0BFC01CF0C0C01DF06E
:1002680083EC14F01A501B10D8A43DEF01F03FEFB7
:1002780001F07FEF01F0BF0E00018C6FFF0E8D6F54
:100288008B518E6F8F6B8C518E278D518F238F5191
:100298000AE11A0E8E5DD8A054EF01F057EF01F075
:1002A800010E58EF01F0000E956F966B955196115F
:1002B800D8B461EF01F063EF01F071EF01F0740E53
:1002C800C3251A6E010EC4211B6EF00E1C6EFF0EA4
:1002D8001D6EFEEC19F012EF01F0740EC3251A6EB4
:1002E800010EC4211B6EF80E1C6EFF0E1D6EFEEC77
:1002F80019F012EF01F0000E0001C56F000EC66F75
:10030800800EC76F3F0EC86F000EC26F000EC16F20
:10031800BDC01AF0BEC01BF0BFC01CF0C0C01DF0AD
:10032800000E1E6E000E1F6E000E206E000E216E57
:10033800BCEC17F0D8B0A3EF01F0A5EF01F02BEF5C
:1003480002F0C4EF01F0C5C060F0C6C061F0C7C0DC
:1003580062F0C8C063F0000E646F000E656F200E77
:10036800666F410E676F38EC0BF060C0C5F061C076
:10037800C6F062C0C7F063C0C8F00001C14BC22B11
:10038800BDC079F0BEC07AF0BFC07BF0C0C07CF0C1
:10039800000E0001646F000E656F200E666F410E3F
:1003A800676FC5C060F0C6C061F0C7C062F0C8C062
:1003B80063F038EC0BF060C07DF061C07EF062C085
:1003C8007FF063C080F000EC14F00001D8B0EFEFCC
:1003D80001F0F1EF01F0A7EF01F011EF02F0C5C055
:1003E8001AF0C6C01BF0C7C01CF0C8C01DF0000E34
:1003F8001E6E000E1F6E200E206E410E216E4EECFA
:100408000DF01AC0C5F01BC0C6F01CC0C7F01DC057
:10041800C8F00001C107D8A0C207BDC079F0BEC0AE
:100428007AF0BFC07BF0C0C07CF0C5C07DF0C6C00C
:100438007EF0C7C07FF0C8C080F000EC14F0000167
:10044800D8A029EF02F02BEF02F0F3EF01F08BC0F8
:1004580020F0216ACEEC19F020500001B26FB2C032
:10046800B1F0670EB219D8A43CEF02F03EEF02F0EB
:1004780064EF02F0E551E611D8A445EF02F047EF2A
:1004880002F04BEF02F0000EE66F010EE56FE6BFDB
:1004980058EF02F0E65106E1E505D8B056EF02F054
:1004A80058EF02F05EEF02F0000EAE6F060EAD6F71
:1004B8006DEF02F0E5C0ADF0E6C0AEF06DEF02F012
:1004C800E6BF69EF02F06BEF02F058EF02F05EEF63
:1004D80002F0670EB219D8A474EF02F076EF02F0BA
:1004E800A5EF02F0C2AF84EF02F0FC0EC15DFF0E73
:1004F800C259D8A082EF02F084EF02F0A3EF02F015
:10050800FF0E8C6FFF0E8D6FADC08EF0AEC08FF0FA
:100518008C518E278D518F23C1518E5D8F51800A4A
:10052800906FC251800A9059D8A09DEF02F09FEFBA
:1005380002F0A3EF02F0660EB16FA5EF02F0650EB0
:10054800B16FADC0A3F0AEC0A4F0670EB219D8A4C5
:10055800B0EF02F0B2EF02F0C2EF02F0660EB1198E
:10056800D8A4B9EF02F0BBEF02F0C4EF02F0C2BFAB
:10057800C2EF02F0C0EF02F0C4EF02F0A34BA42BCD
:10058800660EB119D8A4CBEF02F0CDEF02F0EDEF73
:1005980002F0C2BFD4EF02F0D2EF02F0E0EF02F0B7
:1005A800000EC56F000EC66F800EC76F3F0EC86F76
:1005B800000EC26F000EC16F670EB219D8B4E7EF14
:1005C80002F0E9EF02F0EDEF02F0C151A327C251AA
:1005D800A423000EBC6F000EBB6FBDC0B3F0BEC03D
:1005E800B4F0BFC0B5F0C0C0B6F0C5C0A5F0C6C075
:1005F800A6F0C7C0A7F0C8C0A8F07EEF03F0B3C04C
:100608001AF0B4C01BF0B5C01CF0B6C01DF0C5C0D0
:100618001EF0C6C01FF0C7C020F0C8C021F04EECC5
:100628000DF01AC026F01BC027F01CC028F01DC012
:1006380029F01CEC0FF026C0B7F027C0B8F028C08E
:10064800B9F029C0BAF0B7C01AF0B8C01BF0B9C0E9
:100658001CF0BAC01DF07DEC13F01AC0A9F01BC045
:10066800AAF0B3C079F0B4C07AF0B5C07BF0B6C0D8
:100678007CF0C5C064F0C6C065F0C7C066F0C8C0ED
:1006880067F0B7C060F0B8C061F0B9C062F0BAC036
:1006980063F038EC0BF060C07DF061C07EF062C0A2
:1006A8007FF063C080F0D5EC1AF079C0B3F07AC05F
:1006B800B4F07BC0B5F07CC0B6F0C5C01AF0C6C0B7
:1006C8001BF0C7C01CF0C8C01DF0000E1E6E000E47
:1006D8001F6E200E206E410E216E4EEC0DF01AC0DA
:1006E800C5F01BC0C6F01CC0C7F01DC0C8F0000193
:1006F800BB4BBC2BA351BB5DBC51800A8C6FA45172
:10070800800A8C59D8A08BEF03F08DEF03F003EF2C
:1007180003F0C5C060F0C6C061F0C7C062F0C8C0D1
:1007280063F0000E646F000E656FA00E666F400EDA
:10073800676F38EC0BF060C0B7F061C0B8F062C00A
:10074800B9F063C0BAF0B3C079F0B4C07AF0B5C0FC
:100758007BF0B6C07CF0B7C07DF0B8C07EF0B9C001
:100768007FF0BAC080F000EC14F00001D8B0BFEF01
:1007780003F0C1EF03F0CBEF03F0000EB76F000EEC
:10078800B86F000EB96F000EBA6FF4EF03F0B3C084
:100798001AF0B4C01BF0B5C01CF0B6C01DF0B7C04D
:1007A8001EF0B8C01FF0B9C020F0BAC021F0BCECF0
:1007B80017F0D8A0E2EF03F0E4EF03F0F4EF03F052
:1007C8000001A9B1EAEF03F0ECEF03F0F4EF03F056
:1007D800000EB76F000EB86F000EB96F000EBA6F3B
:1007E800BDC01AF0BEC01BF0BFC01CF0C0C01DF0D9
:1007F800B7C01EF0B8C01FF0B9C020F0BAC021F0D1
:1008080095EC06F01AC0B3F01BC0B4F01CC0B5F0EC
:100818001DC0B6F0B3C079F0B4C07AF0B5C07BF0B3
:10082800B6C07CF0000E0001646F000E656F200EEC
:10083800666F410E676FA5C060F0A6C061F0A7C0E3
:1008480062F0A8C063F038EC0BF060C07DF061C0C6
:100858007EF062C07FF063C080F000EC14F000010D
:10086800D8A039EF04F03BEF04F063EF04F0C14B7C
:10087800C22BA5C060F0A6C061F0A7C062F0A8C0F6
:1008880063F0000E646F000E656F200E666F410EF8
:10089800676F38EC0BF060C0A5F061C0A6F062C0CD
:1008A800A7F063C0A8F0660E0001B119D8A45FEFE5
:1008B80004F061EF04F063EF04F0A34BA42BA5C090
:1008C800C5F0A6C0C6F0A7C0C7F0A8C0C8F0650E9E
:1008D800B119D8B472EF04F074EF04F07AEF04F0B1
:1008E800C1C0A1F0C2C0A2F07EEF04F0000EA26F5A
:1008F800000EA16F000EA06F000E9F6F000E9E6F7E
:10090800000E9D6F000EBC6F000EBB6F7AEF05F0F6
:10091800B3C01AF0B4C01BF0B5C01CF0B6C01DF0CF
:10092800C5C01EF0C6C01FF0C7C020F0C8C021F067
:100938004EEC0DF01AC026F01BC027F01CC028F0A2
:100948001DC029F01CEC0FF026C0B7F027C0B8F086
:1009580028C0B9F029C0BAF0B7C01AF0B8C01BF067
:10096800B9C01CF0BAC01DF07DEC13F01AC0A9F094
:100978001BC0AAF042B8C3EF04F0C5EF04F0E3EFE0
:1009880004F00001A951AA11D8A4CDEF04F0CFEFCB
:1009980004F0E3EF04F0670EB219D8A4D6EF04F020
:1009A800D8EF04F0E3EF04F0A2BFDFEF04F0DDEFCF
:1009B80004F0E3EF04F09D4B9E2B2EEF05F00001B1
:1009C8009F51A011D8A4EBEF04F0EDEF04F017EF5E
:1009D80005F0A2BFF4EF04F0F2EF04F017EF05F012
:1009E800740EC325D96E010EC421DA6E2E0EDF6E89
:1009F800C34BC42BAF07D8A0B007000EA06F010EE1
:100A08009F6F17EF05F0740EC325D96E010EC42130
:100A1800DA6E300EDF6EC34BC42BAF07D8A0B00719
:100A28009D07D8A09E079D519E11D8A41EEF05F0E2
:100A380020EF05F007EF05F0740EC325D96E010EFF
:100A4800C421DA6EA951300FDF6EC34BC42BAF0738
:100A5800D8A0B007B3C079F0B4C07AF0B5C07BF0C5
:100A6800B6C07CF0C5C064F0C6C065F0C7C066F00B
:100A7800C8C067F0B7C060F0B8C061F0B9C062F034
:100A8800BAC063F038EC0BF060C07DF061C07EF056
:100A980062C07FF063C080F0D5EC1AF079C0B3F083
:100AA8007AC0B4F07BC0B5F07CC0B6F0C5C01AF00F
:100AB800C6C01BF0C7C01CF0C8C01DF0000E1E6EDB
:100AC800000E1F6E200E206E410E216E4EEC0DF0B2
:100AD8001AC0C5F01BC0C6F01CC0C7F01DC0C8F0C6
:100AE8000001A107D8A0A207BB4BBC2BA351BB5D3B
:100AF800BC51800A8C6FA451800A8C59D8B087EFFA
:100B080005F089EF05F097EF05F0C4BF95EF05F004
:100B1800C45109E14B0EC35DD8A095EF05F097EFDE
:100B280005F08CEF04F09F51A011D8A49EEF05F0BA
:100B3800A0EF05F0B1EF05F042A8A5EF05F0A7EF8B
:100B480005F0B1EF05F0740EC325D96E010EC4216E
:100B5800DA6E2E0EDF6EC34BC42B740EC325D96E0E
:100B6800010EC421DA6E000EDF6E650EB119D8A42D
:100B7800C0EF05F0C2EF05F017EF01F0000EBC6FF3
:100B88004F0EBB6F740EBB25D96E010EBC21DA6EF9
:100B9800000EDF6E000EAC6F000EAB6FC2BFD9EF58
:100BA80005F0D7EF05F0E1EF05F0000EAC6F010E90
:100BB800AB6FC16DC21FD8B0C22B000EAE6F020E54
:100BC800AD6F12EF06F0BB07D8A0BC07740EBB25AB
:100BD800D96E010EBC21DA6EC1C01AF0C2C01BF07A
:100BE800000E1D6E0A0E1C6E64EC17F01A50300FC2
:100BF800DF6EC1C01AF0C2C01BF0000E1D6E0A0ED7
:100C08001C6EA0EC16F01AC0C1F01BC0C2F00001A7
:100C1800AD07D8A0AE07AF07D8A0B007C151C21121
:100C2800D8A419EF06F01BEF06F0E7EF05F0AEBF0A
:100C380028EF06F0AE5106E1AD05D8B026EF06F074
:100C480028EF06F0E7EF05F0BB07D8A0BC07AB51CB
:100C5800AC11D8A432EF06F034EF06F03AEF06F004
:100C6800000E986F2B0E976F3EEF06F0000E986FF0
:100C78002D0E976F740EBB25D96E010EBC21DA6E4E
:100C880097C0DFFFAF07D8A0B007BB07D8A0BC0745
:100C9800BF0E8C6FFF0E8D6F8B518E6F8F6B8C51CB
:100CA8008E278D518F238F510AE11A0E8E5DD8A0A1
:100CB80060EF06F063EF06F0010E64EF06F0000E39
:100CC8009B6F9C6B9B519C11D8A46DEF06F06FEF46
:100CD80006F075EF06F0000E9A6F650E996F79EFC2
:100CE80006F0000E9A6F450E996F740EBB25D96EEB
:100CF800010EBC21DA6E99C0DFFFAF07D8A0B0079C
:100D0800740EC3251A6E010EC4211B6E740EBB250A
:100D18001C6E010EBC211D6EFEEC19F017EF01F0E0
:100D280012001D50800B266E1D501D24286E1CAE0F
:100D3800A0EF06F0A2EF06F0A3EF06F028802850F7
:100D4800D8B4A9EF06F0ABEF06F0C0EF06F02828FC
:100D5800D8A4B1EF06F0B3EF06F0BBEF06F0000E33
:100D68001A6E000E1B6E000E1C6E000E1D6E1C8E81
:100D7800000E1D6EC8EF06F0000E1A6E000E1B6EF8
:100D8800000E1C6E000E1D6E2150800B276E265023
:100D98002718D8B4D2EF06F0D4EF06F0D5EF06F056
:100DA800268C21502124276E20AEDDEF06F0DFEFE0
:100DB80006F0E0EF06F027802750D8B4E6EF06F0FB
:100DC800E8EF06F0FDEF06F02728D8A4EEEF06F0CE
:100DD800F0EF06F0F8EF06F0000E1E6E000E1F6E24
:100DE800000E206E000E216E208E000E216E05EF83
:100DF80007F0000E1E6E000E1F6E000E206E000E15
:100E0800216E2850275CD8B00CEF07F00EEF07F0E2
:100E180035EF07F026AC13EF07F015EF07F017EFE3
:100E280007F0800E261A28C029F027C028F029C00C
:100E380027F01AC029F01EC01AF029C01EF01BC0E6
:100E480029F01FC01BF029C01FF01CC029F020C0CA
:100E58001CF029C020F01DC029F021C01DF029C0B8
:100E680021F0000E296E285027C022F0236A225E46
:100E7800000E235A23BE4AEF07F0235009E11A0E49
:100E8800225CD8A04AEF07F04CEF07F083EF07F099
:100E98001A501B101C101D10D8A455EF07F058EF5E
:100EA80007F0010E59EF07F0000E296E000E1A6EBA
:100EB800000E1B6E000E1C6E000E1D6E27C028F063
:100EC8008CEF07F029A06BEF07F06DEF07F073EFD9
:100ED80007F0D89029300109296E75EF07F0D890EE
:100EE80029321AA07AEF07F07CEF07F07DEF07F0C0
:100EF800298E1D341D321C321B321A32282A2750E3
:100F0800285CD8A08AEF07F08CEF07F066EF07F0AF
:100F180026BC91EF07F093EF07F0D3EF07F02850C6
:100F2800D8A499EF07F09BEF07F0A5EF07F0000EA4
:100F38001A6E000E1B6E000E1C6E000E1D6EF4EF76
:100F480008F01E501A261F501B2220501C22215028
:100F58001D221DA0B2EF07F0B4EF07F060EF08F014
:100F680029A0B9EF07F0BBEF07F0C1EF07F0D89061
:100F780029300109296EC3EF07F0D89029321AA049
:100F8800C8EF07F0CAEF07F0CBEF07F0298E1D3442
:100F98001D321C321B321A32282A60EF08F01E500C
:100FA8001A5C1F501B5820501C581D50800A226E76
:100FB8002150800A2258D8B0E4EF07F0E6EF07F096
:100FC80011EF08F01A501E5C226E1B501F58236E3A
:100FD8001C502058246E1D502158256EFF0E2224C7
:100FE8001A6EFF0E23201B6EFF0E24201C6EFF0EB0
:100FF80025201D6E800E261A296C2950D8A407EFCB
:1010080008F009EF08F019EF08F0010E1A26000E93
:101018001B221C221D2219EF08F01E501A5E1F50B9
:101028001B5A20501C5A21501D5A1A501B101C10B4
:101038001D10D8A422EF08F024EF08F059EF08F0AB
:101048002950D8A42AEF08F02CEF08F059EF08F03F
:10105800000E1A6E000E1B6E000E1C6E000E1D6E2A
:10106800F4EF08F0D8901A361B361C361D3629AE18
:1010780040EF08F042EF08F043EF08F01A8029A08B
:1010880048EF08F04AEF08F04EEF08F0D88029360C
:1010980050EF08F0D89029362850D8B456EF08F009
:1010A80058EF08F059EF08F028061CAE5EEF08F07C
:1010B80060EF08F036EF08F0000E276E29AE67EFF4
:1010C80008F069EF08F081EF08F029C022F07F0EE0
:1010D8002216D8B472EF08F074EF08F078EF08F031
:1010E800010E276E81EF08F01AA07DEF08F07FEF60
:1010F80008F081EF08F074EF08F02750D8B487EFB4
:1011080008F089EF08F0B4EF08F0010E1A26000E77
:101118001B221C221D221DA094EF08F096EF08F058
:10112800B4EF08F01AC022F01BC023F01CC024F052
:101138001DC025F02534253224322332223222C024
:101148001AF023C01BF024C01CF025C01DF028286D
:10115800D8B4B1EF08F0B3EF08F0B4EF08F0282ADC
:101168002828D8B4BAEF08F0BCEF08F0C4EF08F0AC
:101178002850D8A4C2EF08F0C4EF08F0D6EF08F062
:10118800000E1A6E000E1B6E000E1C6E000E1D6EF9
:101198002850D8A4D2EF08F0D4EF08F0D6EF08F022
:1011A800000E266E28A0DBEF08F0DDEF08F0E0EF78
:1011B80008F01C8EE1EF08F01C9ED89028301D6EB8
:1011C80026AEE9EF08F0EBEF08F0ECEF08F01D8E23
:1011D8001AC01AF01BC01BF01CC01CF01DC01DF06B
:1011E8001200CBC0D9FFCCC0DAFFDECFF6FFDDCFCF
:1011F800F7FFF86A0800F550250AD8A406EF09F0A9
:1012080008EF09F01BEF0BF0CBC0D9FFCCC0DAFF19
:10121800DE2A000EDD22000E0001E46F000EE36FEF
:10122800E3C042F0E4C043F0E569E669CBC0D9FF0A
:10123800CCC0DAFFDECFF6FFDDCFF7FFF86A080093
:10124800F5502E0AD8A42BEF09F02DEF09F0ADEFD9
:1012580009F0000EE66F000EE56FCBC0D9FFCCC0D9
:10126800DAFFDE2A000EDD22CBC0D9FFCCC0DAFFC0
:10127800DECFF6FFDDCFF7FFF86A0800F5502A0A3F
:10128800D8A449EF09F04BEF09F068EF09F0CBC09B
:10129800D9FFCCC0DAFFDE2A000EDD22CDC0D9FF8F
:1012A800CEC0DAFFDFCFCFF0020EDE26DFCFD0F0E0
:1012B800000EDD22CFC0D9FFD0C0DAFFDECFE5F0C7
:1012C800DDCFE6F0ADEF09F0CBC0D9FFCCC0DAFF37
:1012D800DECF21F0DDCF22F001EC11F021C0E5F0E6
:1012E80022C0E6F07FEF09F0CBC0D9FFCCC0DAFF0F
:1012F800DE2A000EDD22D00E0001CF6FFF0ED06F68
:10130800CBC0D9FFCCC0DAFFDECFF6FFDDCFF7FFC9
:10131800F86A0800F550D16FD26BCF51D127D05160
:10132800D223D2510AE10A0ED15DD8A09EEF09F06E
:10133800A1EF09F0010EA2EF09F0000ED36FD46BF4
:10134800D351D411D8A4ABEF09F0ADEF09F078EF81
:1013580009F0CBC0D9FFCCC0DAFFDECFF6FFDDCF76
:10136800F7FFF86A0800F550206E216ACEEC19F0F4
:1013780020500001DB6FDB51D8B4C5EF09F0C7EF8F
:1013880009F003EF0AF0CBC0D9FFCCC0DAFFDECFFB
:10139800CFF0DDCFD0F0010ECF27000ED023CFC085
:1013A800F6FFD0C0F7FFF86A0800F550206E216AF2
:1013B800CEEC19F020500001DC6FDC51D8B4E7EF17
:1013C80009F0E9EF09F003EF0AF0CBC0D9FFCCC070
:1013D800DAFFDECFCFF0DDCFD0F0020ECF27000E40
:1013E800D023CFC0F6FFD0C0F7FFF86A0800F55049
:1013F800206E216ACEEC19F020500001DD6F660ED8
:10140800DB19D8A40AEF0AF00CEF0AF04DEF0AF046
:10141800CBC0D9FFCCC0DAFFDECFF6FFDDCFF7FFB8
:10142800F86A0800F5CFDEF0CBC0D9FFCCC0DAFFF0
:10143800DE2A000EDD22CDC0D9FFCEC0DAFFDFCF15
:10144800CFF0040EDE26DFCFD0F0000EDD22CFC0B5
:10145800D9FFD0C0DAFFDECFD7F0DECFD8F0DECFAD
:10146800D9F0DECFDAF0C9C085F0CAC086F0D7C09F
:1014780087F0D8C088F0D9C089F0DAC08AF0DEC019
:101488008BF064EC00F085C0C9F086C0CAF037EF75
:101498000BF0DB0E1A6E000E1B6EFC0E1C6EFF0EA0
:1014A8001D6E000E1F6E020E1E6E02EC15F01A5015
:1014B8001B10D8A462EF0AF064EF0AF0E2EF0AF01A
:1014C800CBC0D9FFCCC0DAFFDECFCFF0DDCFD0F074
:1014D800010E0001CF27000ED023CFC0F6FFD0C0E9
:1014E800F7FFF86A0800F5CFDEF0BF0ECF6FFF0EEA
:1014F800D06FCBC0D9FFCCC0DAFFDECFF6FFDDCF8F
:10150800F7FFF86A0800F550D16FD26BCF51D12799
:10151800D051D223D2510AE11A0ED15DD8A097EF4B
:101528000AF09AEF0AF0010E9BEF0AF0000ED56F51
:10153800D66BD551D611D8B4A4EF0AF0A6EF0AF0AD
:10154800C0EF0AF0CDC0D9FFCEC0DAFFDFCFCFF0B1
:10155800040EDE26DFCFD0F0000EDD22CFC0D9FF8B
:10156800D0C0DAFFDECFD7F0DECFD8F0DECFD9F0AB
:10157800DECFDAF0D8EF0AF0CDC0D9FFCEC0DAFF5F
:10158800DFCFCFF0040EDE26DFCFD0F0000EDD2255
:10159800CFC0D9FFD0C0DAFFDECFD7F0DECFD8F08A
:1015A800DECFD9F0DECFDAF0020ECBC0D9FFCCC047
:1015B800DAFFDE26000EDD2237EF0AF0CBC0D9FFB6
:1015C800CCC0DAFFDECFF6FFDDCFF7FFF86A080000
:1015D800F550250AD8A4F3EF0AF0F5EF0AF00DEF5D
:1015E8000BF0CBC0D9FFCCC0DAFFDE2A000EDD221B
:1015F800000E1B6E250E1A6EC9C01CF0CAC01DF065
:10160800D7EC15F0000E0001CA6F010EC96F37EF55
:101618000BF0CBC0D9FFCCC0DAFFDE2A000EDD22EA
:10162800000E0001CA6F000EC96F37EF0BF0CBC078
:10163800D9FFCCC0DAFFDECFF6FFDDCFF7FFF86ABF
:101648000800F5501A6E1B6AC9C01CF0CAC01DF00C
:10165800D7EC15F0CBC0D9FFCCC0DAFFDE2A000EDC
:10166800DD2206EF0BF0120000016351800B6C6F56
:1016780063516325726F62AF44EF0BF046EF0BF0D6
:1016880047EF0BF072817251D8B44DEF0BF04FEF6A
:101698000BF062EF0BF07229D8A455EF0BF057EF5F
:1016A8000BF05FEF0BF0000E606F000E616F000E25
:1016B800626F000E636F628F6AEF0BF0000E606F4F
:1016C800000E616F000E626F000E636F6751800B32
:1016D8006C1B675167256D6F66AF75EF0BF077EF81
:1016E8000BF078EF0BF06D816D51D8B47EEF0BF0F5
:1016F80080EF0BF093EF0BF06D29D8A486EF0BF079
:1017080088EF0BF090EF0BF0000E646F000E656F22
:10171800000E666F000E676F668F9BEF0BF0000E72
:10172800646F000E656F000E666F000E676F6D5177
:10173800D8B4A1EF0BF0A3EF0BF0ABEF0BF07251A5
:10174800D8A4A9EF0BF0ABEF0BF0B5EF0BF0000E40
:10175800606F000E616F000E626F000E636F4DEFD9
:101768000DF066516003F3CF77F0F4CF78F077513E
:101778006E6F6F6B706B716B7851736F746B756B89
:10178800766B65516103F3CF77F0F4CF78F077513A
:101798006E27000E6F237023712378517327000E74
:1017A80074237523762364516203F3CF77F0F4CF63
:1017B80078F077516E27000E6F23702371237851CC
:1017C8007327000E74237523762370C071F06FC0E1
:1017D80070F06EC06FF06E6B64516103F3CF77F0F9
:1017E800F4CF78F077516E2778516F23000E70236D
:1017F800000E712365516003F3CF77F0F4CF78F0D2
:1018080077516E2778516F23000E7023000E7123D5
:1018180070C071F06FC070F06EC06FF06E6B645185
:101828006003F3CF77F0F4CF78F077516E277851D3
:101838006F23000E7023000E712366516103F3CFEE
:1018480077F0F4CF78F07751732778517423000E2E
:101858007523000E762365516203F3CF77F0F4CF3A
:1018680078F07751732778517423000E7523000E92
:10187800762366516203F3CF77F0F4CF78F077518F
:10188800686F7851696F6A6B6B6B6AC06BF069C07F
:101898006AF068C069F0686B6851732769517423EE
:1018A8006A5175236B5176236EC068F06FC069F07A
:1018B80070C06AF071C06BF0190E68EF0CF0D89028
:1018C8006B336A3369336833E82E63EF0CF0685181
:1018D8007327695174236A5175236B51762370C03D
:1018E80071F06FC070F06EC06FF06E6B6D5172C0AA
:1018F80068F0696B6827000E6923820E6825776F88
:10190800FF0E6921786F9EEF0CF0D890733774370B
:101918007537763771AF93EF0CF095EF0CF096EFC3
:101928000CF07381D8906E376F377037713777073F
:10193800D8A0780775AFA3EF0CF0A5EF0CF089EFEE
:101948000CF0000E6D6F71AFACEF0CF0AEEF0CF059
:10195800D2EF0CF0FF0E6E15686FFF0E6F15696FF2
:10196800FF0E70156A6F7F0E71156B6F68516911E4
:101978006A116B11D8B4C3EF0CF0C5EF0CF0C9EFC6
:101988000CF0010E6D6FD2EF0CF073A1CEEF0CF0DE
:10199800D0EF0CF0D2EF0CF0C5EF0CF06D51D8B4CD
:1019A800D8EF0CF0DAEF0CF0FEEF0CF0010E732715
:1019B800000E74237523762376A1E5EF0CF0E7EF8C
:1019C8000CF0FEEF0CF073C068F074C069F075C0DD
:1019D8006AF076C06BF06B356B336A336933683302
:1019E80068C073F069C074F06AC075F06BC076F0B7
:1019F800774B782B78BF09EF0DF0785108E17729FC
:101A0800D8A009EF0DF00BEF0DF015EF0DF0000E5B
:101A1800736F000E746F800E756F7F0E766F43EFD5
:101A28000DF078BF22EF0DF0785106E17705D8B0B8
:101A380020EF0DF022EF0DF02EEF0DF0000E736F7A
:101A4800000E746F000E756F000E766F000E6C6FCF
:101A580043EF0DF077C072F0FF0E7317FF0E741787
:101A68007F0E7517000E761772A13DEF0DF03FEF50
:101A78000DF040EF0DF0758FD8907231766F6C5184
:101A8800761373C060F074C061F075C062F076C000
:101A980063F012001D50800B0001646F1D501D245F
:101AA8006B6F1CAE5AEF0DF05CEF0DF05DEF0DF0B3
:101AB8006B816B51D8B463EF0DF065EF0DF07AEFE1
:101AC8000DF06B29D8A46BEF0DF06DEF0DF075EFED
:101AD8000DF0000E1A6E000E1B6E000E1C6E000E2E
:101AE8001D6E1C8E000E1D6E82EF0DF0000E1A6E1C
:101AF800000E1B6E000E1C6E000E1D6E2150800B1A
:101B0800641B215021246C6F20AE8DEF0DF08FEFF8
:101B18000DF090EF0DF06C816C51D8B496EF0DF08C
:101B280098EF0DF0ADEF0DF06C29D8A49EEF0DF0F5
:101B3800A0EF0DF0A8EF0DF0000E1E6E000E1F6E48
:101B4800000E206E000E216E208E000E216EB5EF65
:101B58000DF0000E1E6E000E1F6E000E206E000EA1
:101B6800216E1E501F1020102110D8A4BEEF0DF0BA
:101B7800C0EF0DF0D8EF0DF0000E1A6E000E1B6EC0
:101B8800000E1C6E000E1D6E800E1C127F0E1D12A4
:101B980064511D121AC01AF01BC01BF01CC01CF0A7
:101BA8001DC01DF01BEF0FF06B51D8A4DEEF0DF038
:101BB800E0EF0DF0EAEF0DF0000E1A6E000E1B6E4E
:101BC800000E1C6E000E1D6E1BEF0FF06C516BC0EB
:101BD80022F0236A225E000E235A7F0E2224656FAC
:101BE800000E2320666F1AC060F01BC061F01CC095
:101BF80062F01DC063F0000E1A6E000E1B6E000E20
:101C08001C6E000E1D6E000E676F000E686F000ED2
:101C1800696F000E6A6F000E6C6F4BEF0EF06C511F
:101C2800D8B419EF0EF01BEF0EF032EF0EF0D8908B
:101C38006037613762376337D8901A361B361C36DF
:101C48001D366AAF2AEF0EF02CEF0EF02DEF0EF0D6
:101C58001A80D8906737683769376A371E50605DD1
:101C68001F5061592050625921506359D8A03FEF45
:101C78000EF041EF0EF04AEF0EF06A8D1E50605FD5
:101C88001F50615B2050625B2150635B6C2B190E07
:101C98006C6551EF0EF053EF0EF013EF0EF060513C
:101CA800611162116311D8B45CEF0EF05EEF0EF0B3
:101CB80076EF0EF0678176EF0EF0D8901A361B3665
:101CC8001C361D366AAF6BEF0EF06DEF0EF06EEF3F
:101CD8000EF01A80D8906737683769376A37650712
:101CE800D8A066071CAE7BEF0EF07DEF0EF061EF1B
:101CF8000EF0000E6C6F6AAF84EF0EF086EF0EF0F8
:101D0800AAEF0EF0FF0E6715226EFF0E6815236E00
:101D1800FF0E6915246E7F0E6A15256E225023105A
:101D280024102510D8B49BEF0EF09DEF0EF0A1EF14
:101D38000EF0010E6C6FAAEF0EF01AA0A6EF0EF0CF
:101D4800A8EF0EF0AAEF0EF09DEF0EF06C51D8B48C
:101D5800B0EF0EF0B2EF0EF0D6EF0EF0010E1A262D
:101D6800000E1B221C221D221DA0BDEF0EF0BFEF8E
:101D78000EF0D6EF0EF01AC022F01BC023F01CC0E4
:101D880024F01DC025F02534253224322332223296
:101D980022C01AF023C01BF024C01CF025C01DF07F
:101DA800654B662B66BFE1EF0EF0665108E16529C9
:101DB800D8A0E1EF0EF0E3EF0EF0EEEF0EF0000E1C
:101DC800666F6569000E1A6E000E1B6E000E1C6EA3
:101DD800000E1D6E66BFFBEF0EF0665106E165054D
:101DE800D8B0F9EF0EF0FBEF0EF009EF0FF0000E90
:101DF800666F000E656F000E1A6E000E1B6E000EE9
:101E08001C6E000E1D6E000E646F65C06BF06BA13A
:101E180010EF0FF012EF0FF015EF0FF01C8E16EF0A
:101E28000FF01C9ED8906B311D6ECCEF0DF0120098
:101E38002EC079F02FC07AF030C07BF031C07CF032
:101E480026C079F027C07AF028C07BF029C07CF042
:101E5800810E00016D6FFF0E6E6F79C06FF07AC052
:101E680070F07BC071F07CC072F0180E41EF0FF07B
:101E7800D8907233713370336F33E82E3CEF0FF024
:101E88006F516D25776F000E6E21786F78BF56EF12
:101E98000FF0785109E1170E775DD8A056EF0FF0D3
:101EA80058EF0FF062EF0FF026C026F027C027F09A
:101EB80028C028F029C029F026EF10F078BF67EF76
:101EC8000FF069EF0FF0DAEF0FF077C06DF0FF0E4B
:101ED8006E6FFF0E6F6F7F0E706F000E716F6D6704
:101EE80078EF0FF080EF0FF07135713370336F3387
:101EF8006E336D2F73EF0FF06EC073F06FC074F018
:101F080070C075F071C076F00001735179156D6F6E
:101F180074517A156E6F75517B156F6F76517C15FC
:101F2800706F6D516E116F117011D8A49EEF0FF084
:101F3800A0EF0FF0A2EF0FF058EF0FF079C06DF09F
:101F48007AC06EF07BC06FF07CC070F0200EB2EFEC
:101F58000FF0D89070336F336E336D33E82EADEFDA
:101F68000FF06D516E116F117011D8B4BEEF0FF0F4
:101F7800C0EF0FF0C8EF0FF07351792774517A232F
:101F880075517B2376517C23731D6D6F741D6E6FA5
:101F9800751D6F6F761D706F6D5179176E517A17B9
:101FA8006F517B1770517C171EEF10F079C06DF0E0
:101FB8007AC06EF07BC06FF07CC070F0200EEAEF44
:101FC8000FF0D89070336F336E336D33E82EE5EF32
:101FD8000FF06D516E116F117011D8A4F6EF0FF05C
:101FE800F8EF0FF002EF10F0000E796F000E7A6F25
:101FF800000E7B6F000E7C6F1EEF10F0D8907935C5
:102008006D6F7A356E6F7B356F6F7C35706F6D5184
:102018006E116F117011D8B414EF10F016EF10F0A4
:102028001EEF10F0000E796F000E7A6F800E7B6F36
:10203800BF0E7C6F79C026F07AC027F07BC028F0ED
:102048007CC029F01200286E2850D8B42EEF10F06A
:1020580030EF10F052EF10F023BE37EF10F035EFED
:1020680010F052EF10F020C024F021C025F022C05B
:1020780026F023C027F0241E251E261E271E242AEC
:10208800000E25222622272224C02AF025C02BF064
:1020980026C02CF027C02DF05AEF10F020C02AF0EF
:1020A80021C02BF022C02CF023C02DF0205021108D
:1020B80022102310D8A463EF10F065EF10F06FEF33
:1020C80010F0000E206E000E216E000E226E000E23
:1020D800236E00EF11F0960E296E79EF10F0292A81
:1020E800D8902D322C322B322A32000E2A14246E2C
:1020F800000E2B14256E000E2C14266EFE0E2D14C9
:10210800276E2450251026102710D8A48EEF10F023
:1021180090EF10F073EF10F09EEF10F0292A010EE7
:102128002A26000E2B222C222D22D8902D322C323A
:102138002B322A32000E2A14246E000E2B14256E20
:10214800000E2C14266EFF0E2D14276E2450251019
:1021580026102710D8A4B3EF10F0B5EF10F092EFC7
:1021680010F0BDEF10F02906D8902A362B362C3601
:102178002D362CBEC2EF10F0C4EF10F0CCEF10F0EB
:10218800020E2960CAEF10F0CCEF10F0B7EF10F094
:1021980029B0D1EF10F0D3EF10F0D4EF10F02C9E4F
:1021A800D890293229C024F0256A266A276A24C0D3
:1021B80027F0266A256A246A24502A1225502B12F1
:1021C80026502C1227502D122850D8B4EEEF10F0BC
:1021D800F0EF10F0F8EF10F023BEF7EF10F0F5EF86
:1021E80010F0F8EF10F02D8E2AC020F02BC021F04F
:1021F8002CC022F02DC023F01200000E0001686FE1
:10220800000E676F000E616F000E606F0EEF11F029
:10221800214A222A010E666F21C0F6FF22C0F7FF6D
:10222800F86A0800F550200AD8B41DEF11F01FEF26
:1022380011F03DEF11F0F70E236EFF0E246E21C052
:10224800F6FF22C0F7FFF86A0800F550256E266AE7
:102258002350252624502622265009E1050E255C08
:10226800D8A039EF11F03BEF11F03DEF11F0000E5F
:10227800666F66C062F0636B62516311D8A447EF62
:1022880011F049EF11F00CEF11F053EF11F0000EBF
:10229800616F010E606F214A222A8BEF11F021C075
:1022A800F6FF22C0F7FFF86A0800F550236E246A8B
:1022B8002450000AD8B463EF11F08BEF11F02350CB
:1022C8002B0AD8B44FEF11F0060AD8B44BEF11F02F
:1022D8008BEF11F067C01AF068C01BF0000E1D6E7E
:1022E8000A0E1C6EA8EC1CF021C0F6FF22C0F7FFF6
:1022F800F86A0800F5501A5E000E1B5A300E1A24B0
:102308000001676F000E1B20686F4FEF11F0D00EB1
:10231800236EFF0E246E21C0F6FF22C0F7FFF86A75
:102328000800F550256E266A2350252624502622BB
:1023380026500AE10A0E255CD8A0A5EF11F0A8EFF7
:1023480011F0010EA9EF11F0000E646F656B645176
:102358006511D8A4B2EF11F0B4EF11F06EEF11F0DF
:1023680060516111D8A4BBEF11F0BDEF11F0CBEFB4
:1023780011F067C023F068C024F0231E241E234AEE
:10238800242A23C021F024C022F0CFEF11F067C027
:1023980021F068C022F012003AEC1DF0000E1C6E0D
:1023A800800E1B6E31EC1DF0000E1C6E020E1B6EB3
:1023B80031EC1DF03EEC1DF0000E1C6E810E1B6E04
:1023C80031EC1DF0000E1C6E010E1B6ECAEC1BF0EA
:1023D8001B500001816F000E1C6E000E1B6ECAECB4
:1023E8001BF0000181517E6F7D6B1B507D117F6F4B
:1023F8001C507E11806F7FC020F080C021F0226ABF
:10240800236A000E27EC10F020C060F021C061F0B4
:1024180022C062F023C063F0000E0001646F000E5A
:10242800656FA00E666F3F0E676F38EC0BF060C0EB
:102438003EF061C03FF062C040F063C041F036EC4E
:102448001DF03EC01AF03FC01BF040C01CF041C058
:102458001DF0000E1E6E000E1F6E7A0E206E440ECA
:10246800216E4EEC0DF01AC03EF01BC03FF01CC0B0
:1024780040F01DC041F0040E00017E6F0C0E7D6F10
:10248800330EE82EFED77D2FFCD77E2FFAD700D04B
:10249800070E00017E6F170E7D6F6A0EE82EFED7BD
:1024A8007D2FFCD77E2FFAD700F03EC079F03FC0D1
:1024B8007AF040C07BF041C07CF012003AEC1DF08D
:1024C800000E1C6E800E1B6E31EC1DF0000E1C6E93
:1024D800010E1B6E31EC1DF03EEC1DF0000E1C6E63
:1024E800810E1B6E31EC1DF0000E1C6E010E1B6E72
:1024F800CAEC1BF01B500001816F000E1C6E000E11
:102508001B6ECAEC1BF0000181517E6F7D6B1B5066
:102518007D117F6F1C507E11806F7FC020F080C0BE
:1025280021F0226A236A000E27EC10F020C060F028
:1025380021C061F022C062F023C063F0000E0001E8
:10254800646F000E656FA00E666F3F0E676F38EC04
:102558000BF060C03AF061C03BF062C03CF063C071
:102568003DF036EC1DF03AC01AF03BC01BF03CC001
:102578001CF03DC01DF0000E1E6E000E1F6E7A0E80
:10258800206E440E216E4EEC0DF01AC03AF01BC0BE
:102598003BF01CC03CF01DC03DF0040E00017E6FF6
:1025A8000C0E7D6F330EE82EFED77D2FFCD77E2FC5
:1025B800FAD700D0070E00017E6F170E7D6F6A0EE6
:1025C800E82EFED77D2FFCD77E2FFAD700F03AC031
:1025D80079F03BC07AF03CC07BF03DC07CF0120043
:1025E8003AEC1DF0000E1C6E800E1B6E31EC1DF0D7
:1025F800000E1C6E030E1B6E31EC1DF03EEC1DF040
:10260800000E1C6E810E1B6E31EC1DF0000E1C6E50
:10261800010E1B6ECAEC1BF01B500001756F000EFB
:102628001C6E000E1B6ECAEC1BF000017551726F18
:10263800716B1B507111736F1C507211746F73C0E2
:102648001AF074C01BF0000E1D6E0A0E1C6EA8EC6A
:102658001CF01AC020F01BC021F0226A236A000E69
:1026680027EC10F020C036F021C037F022C038F037
:1026780023C039F036EC1DF036C01AF037C01BF015
:1026880038C01CF039C01DF0000E1E6E000E1F6E03
:102698007A0E206E440E216E4EEC0DF01AC036F004
:1026A8001BC037F01CC038F01DC039F0040E000103
:1026B800726F0C0E716F330EE82EFED7712FFCD798
:1026C800722FFAD700D0070E0001726F170E716FC4
:1026D8006A0EE82EFED7712FFCD7722FFAD700F0BA
:1026E80036C06DF037C06EF038C06FF039C070F08A
:1026F80012001C341D34236E2350D8A486EF13F027
:1027080088EF13F092EF13F0000E1A6E000E1B6E96
:10271800000E1C6E000E1D6EFFEF13F01AC01EF0A7
:102728001BC01FF01CC020F01DC021F0200EA2EF1E
:1027380013F0D890213220321F321E32E82E9DEF3E
:1027480013F01E50226E1C8EFF0E1A16FF0E1B165B
:10275800FF0E1C16000E1D16960E235E23BEB9EF43
:1027680013F0B7EF13F0CFEF13F02350800A970F51
:10277800D8B0C1EF13F0C3EF13F0C5EF13F088EF33
:1027880013F0D8901D321C321B321A32233EC5EF8B
:1027980013F0E7EF13F01F0E2364D5EF13F0D7EF14
:1027A80013F0DFEF13F088EF13F0D8901A361B36CA
:1027B8001C361D3623062350D8A4E5EF13F0E7EFA7
:1027C80013F0D9EF13F02250D8B4EDEF13F0EFEF78
:1027D80013F0F7EF13F01D1E1C1E1B1E1A6C000EC3
:1027E8001B221C221D221AC01AF01BC01BF01CC081
:1027F8001CF01DC01DF01200000E00017915816F3C
:10280800000E7A15826F800E7B15836F7F0E7C1504
:10281800846F8151821183118411D8A416EF14F0AA
:1028280018EF14F020EF14F0000E796F000E7A6F95
:10283800000E7B6F000E7C6F000E7D15816F000E01
:102848007E15826F800E7F15836F7F0E8015846FD3
:102858008151821183118411D8A435EF14F037EF18
:1028680014F03FEF14F0000E7D6F000E7E6F000E27
:102878007F6F000E806F7CAF44EF14F046EF14F0CA
:102888004FEF14F0796D7A1FD8B07A2B7B1FD8B030
:102898007B2B800E7C5780AF54EF14F056EF14F06A
:1028A8005FEF14F07D6D7E1FD8B07E2B7F1FD8B0F0
:1028B8007F2B800E8057000E791B000E7A1B000EAE
:1028C8007B1B800E7C1B000E7D1B000E7E1B000EEA
:1028D8007F1B800E801B7D51795D7E517A597F5117
:1028E8007B5980517C59D8B07CEF14F07EEF14F0FE
:1028F80081EF14F0D89082EF14F0D880120032C023
:1029080024F033C025F034C026F035C027F01AC0B3
:1029180024F01BC025F01CC026F01DC027F024C0E1
:102928001EF025C01FF026C020F027C021F0180E89
:10293800A3EF14F0D890213220321F321E32E82E35
:102948009EEF14F01E50226E236A22502310D8A442
:10295800B0EF14F0B2EF14F0D2EF14F0D8902434A2
:102968001E6E25341F6E2634206E2734216E1E50AD
:102978001F1020102110D8A4C4EF14F0C6EF14F0D3
:10298800CCEF14F0000E1B6E020E1A6E01EF15F05C
:10299800000E1B6E030E1A6E01EF15F0222823108D
:1029A800D8A4D9EF14F0DBEF14F0FDEF14F024C035
:1029B8001EF025C01FF026C020F027C021F0090E08
:1029C800D8901E361F3620362136E82EE4EF14F054
:1029D8001E501F1020102110D8B4F5EF14F0F8EF96
:1029E80014F0010EF9EF14F0000E1A6E1B6A01EFD5
:1029F80015F0000E1B6E040E1A6E12001AC021F09C
:102A08001BC022F01CC023F01DC024F01E06D8A055
:102A18001F061E2806E11F28D8A415EF15F017EF8A
:102A280015F024EF15F0000E1B6E000E1A6E6FEFF6
:102A380015F0214A222A234A242A1E06D8A01F0656
:102A480021C0D9FF22C0DAFFDF50D8B42EEF15F02D
:102A580030EF15F05DEF15F023C0F6FF24C0F7FF47
:102A6800F86A0800F5500009D8B43DEF15F03FEFBB
:102A780015F05DEF15F01E501F10D8B446EF15F095
:102A880048EF15F05DEF15F021C0D9FF22C0DAFF3D
:102A9800DF50206E23C0F6FF24C0F7FFF86A080055
:102AA800F5502018D8B45BEF15F05DEF15F01DEF69
:102AB80015F021C0D9FF22C0DAFFDF50206E23C0F5
:102AC800F6FF24C0F7FFF86A0800F550205C1A6E7C
:102AD8001B6AD8A01B06120018EC1DF0400E276ECA
:102AE800420E286E0F0E296E000E2A6E2DEC1AF07B
:102AF800D0EC11F079C0FBF07AC0FCF07BC0FDF09F
:102B08007CC0FEF062EC12F079C0F7F07AC0F8F001
:102B18007BC0F9F07CC0FAF0F4EC12F06DC0F3F071
:102B28006EC0F4F06FC0F5F070C0F6F0EF0E010162
:102B3800CA6F000ECB6FE70ECC6FFF0ECD6FFBC0D8
:102B4800CEF1FCC0CFF1FDC0D0F1FEC0D1F15CECFC
:102B58001AF0EB0E0101CA6F000ECB6FE20ECC6FBC
:102B6800FF0ECD6FF7C0CEF1F8C0CFF1F9C0D0F1AC
:102B7800FAC0D1F15CEC1AF0E70E0101CA6F000E41
:102B8800CB6FE20ECC6FFF0ECD6FF3C0CEF1F4C069
:102B9800CFF1F5C0D0F1F6C0D1F15CEC1AF07CEFC2
:102BA80015F062EF00F01C501D10D8B4DEEF15F0E0
:102BB800E0EF15F0E9EF15F01C501D10D8A4E7EF71
:102BC80015F0E9EF15F0EEEF15F01A507DEC1DF059
:102BD8003BEF16F020EE04F01C50D9261D50DA22E7
:102BE800DE50DE10D8B4FBEF15F0FDEF15F018EF4E
:102BF80016F020EE04F01C50D9261D50DA2210EEF3
:102C080002F01C50E1261D50E222DE50E65CE65040
:102C1800800A226EDE50800A2258D8B016EF16F0CD
:102C280018EF16F03BEF16F020EE02F01C50D926F4
:102C38001D50DA22DECF1EF0DDCF1FF01CC0D9FFF9
:102C48001DC0DAFFDECF20F0DDCF21F01E5020249A
:102C5800D96E1F502120DA6E1AC0DFFF20EE02F075
:102C68001C50D9261D50DA22DE2A000EDD22120061
:102C780042A041EF16F043EF16F04DEF16F062C098
:102C880023F063C024F060C025F061C026F0F9ECA1
:102C98001AF0000165BF53EF16F055EF16F05BEF21
:102CA80016F064C068F065C069F05FEF16F0000EBA
:102CB800696F000E686F000E676F000E666F72EF27
:102CC80016F0000E1B6E200E1A6E60C01CF061C05C
:102CD8001DF0D7EC15F00001664B672B6851665D57
:102CE8006751800A2A6E6951800A2A58D8A07FEF56
:102CF80016F081EF16F065EF16F042B086EF16F089
:102D080088EF16F092EF16F062C023F063C024F04B
:102D180060C025F061C026F0F9EC1AF062C01AF024
:102D280063C01BF0AFEC1BF0000168511A24606F00
:102D380069511B20616F1200000E1F6E1DBEA9EFA6
:102D480016F0A7EF16F0AFEF16F01C6C1D1ED8B0EA
:102D58001D2A010E1F6E1BBEB6EF16F0B4EF16F05B
:102D6800BCEF16F01A6C1B1ED8B01B2A010E1F1AD6
:102D7800000E216E000E206E1C501D10D8B4C7EF37
:102D880016F0C9EF16F0F1EF16F0010E1E6ED1EF36
:102D980016F0D8901C361D361E2A1DAED6EF16F03A
:102DA800D8EF16F0CDEF16F0D890203621361C500B
:102DB8001A5C1D501B58D8A0E4EF16F0E6EF16F089
:102DC800EBEF16F01C501A5E1D501B5A2080D8904D
:102DD8001D321C321E2ED8EF16F01F50D8B4F7EF54
:102DE80016F0F9EF16F0FDEF16F0206C211ED8B0A2
:102DF800212A20C01AF021C01BF01200ECEC1CF0B4
:102E08000009D8B40AEF17F00CEF17F047EF17F0E6
:102E18001AEF17F05AEC1DF063EF17F056EC1DF09F
:102E280063EF17F04EEC1DF063EF17F062C10AF084
:102E380063C10BF002D82BEF17F00500FA6E010101
:102E48005651FD6E5751FE6EFF6AFA5012000C6E15
:102E58000D6A0D50000AD8B434EF17F016EF17F0CA
:102E68000C50000AD8B416EF17F0010AD8B40EEFC8
:102E780017F0030AD8B412EF17F0010AD8B416EF06
:102E880017F016EF17F0010173916DC1D9FF6EC1EC
:102E9800DAFF6D4B6E2BDF505EEC1DF001016F0702
:102EA800D8A070076F517011D8A45DEF17F05FEFCD
:102EB80017F062EF17F0060E63EF17F0030E12001B
:102EC800000E1F6E1BBE6DEF17F06BEF17F073EF60
:102ED80017F01A6C1B1ED8B01B2A010E1F6E1DBEE0
:102EE8007AEF17F078EF17F07EEF17F01C6C1D1EC5
:102EF800D8B01D2A1C501D10D8B485EF17F087EFE5
:102F080017F0ABEF17F0010E1E6E8FEF17F0D89089
:102F18001C361D361E2A1DAE94EF17F096EF17F0DB
:102F28008BEF17F01C501A5C1D501B58D8A09FEF50
:102F380017F0A1EF17F0A5EF17F01C501A5E1D50FF
:102F48001B5AD8901D321C321E2E96EF17F01F50B8
:102F5800D8B4B1EF17F0B3EF17F0B7EF17F01A6C5A
:102F68001B1ED8B01B2A1AC01AF01BC01BF0120077
:102F7800000E1A14226E000E1B14236E800E1C14F1
:102F8800246E7F0E1D14256E225023102410251048
:102F9800D8A4D1EF17F0D3EF17F0DBEF17F0000E3E
:102FA8001A6E000E1B6E000E1C6E000E1D6E000EBB
:102FB8001E14226E000E1F14236E800E2014246E21
:102FC8007F0E2114256E2250231024102510D8A41A
:102FD800F0EF17F0F2EF17F0FAEF17F0000E1E6E91
:102FE800000E1F6E000E206E000E216E1E501A1865
:102FF8000FE11F501B180CE120501C1809E121504B
:103008001D18D8B40AEF18F00CEF18F00FEF18F0ED
:10301800D89010EF18F0D880120071EC1DF06DC137
:10302800D9FF6EC1DAFFDF6E01016D4B6E2B6F07A2
:10303800D8A070076F517011D8B425EF18F027EF9A
:1030480018F02CEF18F065EC1DF0050E63EF18F082
:10305800738737EF18F042EC1DF063EF18F046EC79
:103068001DF063EF18F05CC10AF05DC10BF002D8E7
:1030780047EF18F00500FA6E5051FD6E5151FE6E83
:10308800FF6AFA5012000C6E0D6A0D50000AD8B48F
:1030980050EF18F033EF18F00C50000AD8B433EFA3
:1030A80018F0010AD8B42FEF18F0030AD8B42FEF9C
:1030B80018F0010AD8B433EF18F033EF18F0120003
:1030C800000E226E000E236E000E246E000E256E7A
:1030D8001E501F1020102110D8B475EF18F077EF8C
:1030E80018F0ADEF18F0010E266E81EF18F0D890A9
:1030F8001E361F3620362136262A21AE86EF18F0D6
:1031080088EF18F07BEF18F0D89022362336243653
:1031180025361E501A5C1F501B5820501C58215031
:103128001D58D8A09AEF18F09CEF18F0A5EF18F0EA
:103138001E501A5E1F501B5A20501C5A21501D5AEF
:103148002280D890213220321F321E32262E88EF5C
:1031580018F022C01AF023C01BF024C01CF025C0B0
:103168001DF0120001017387C7EF18F052EC1DF033
:10317800F3EF18F06FEC1DF0030EF3EF18F04EECC0
:103188001DF0F3EF18F05CC10AF05DC10BF002D836
:10319800D7EF18F00500FA6E5051FD6E5151FE6ED2
:1031A800FF6AFA5012000C6E0D6A0D50000AD8B46E
:1031B800E0EF18F0C3EF18F00C50000AD8B4C3EFD2
:1031C80018F0010AD8B4BAEF18F0030AD8B4BAEF65
:1031D80018F0010AD8B4BEEF18F0C3EF18F01200C7
:1031E800056E01500210D8B4FCEF18F0FEEF18F08D
:1031F80018EF19F00550020D500EF324D96E010E88
:10320800F420DA6E01C0DEFF02C0DDFF0550020DBA
:103218005C0EF324D96E010EF420DA6E03C0DEFFD3
:1032280004C0DDFF30EF19F00550020D500EF324F5
:10323800D96E010EF420DA6EEE0EDE6E3A0EDD6EF9
:103248000550020D5C0EF324D96E010EF420DA6EDF
:10325800000EDE6E000EDD6E12006DEC1DF0010139
:1032680073A139EF19F03BEF19F048EF19F0ECECC6
:103278001CF00009D8B443EF19F045EF19F048EFF6
:1032880019F00F0E0101716F01017151020D3B0E12
:10329800F324F66EFD0EF420F76EF86A000EF8229D
:1032A8000900F5CF0EF00900F5CF0FF002D866EF50
:1032B80019F00500FA6E0E50FD6E0F50FE6EFF6A93
:1032C800FA5012000101716F120001017391020E90
:1032D800726F77EF19F052EC1DF09BEF19F04EEC7E
:1032E8001DF09BEF19F060C10AF061C10BF002D824
:1032F80087EF19F00500FA6E5451FD6E5551FE6EB8
:10330800FF6AFA5012000C6E0D6A0D50000AD8B40C
:1033180090EF19F073EF19F00C50010AD8B46FEF61
:1033280019F0030AD8B46FEF19F073EF19F012000F
:10333800C6C1DFF0C7C1E0F0000E0001E26F000E69
:10334800E16FBAEF19F0C4C1C9F0C5C1CAF0DF0E08
:10335800CB6F000ECC6FC8C1CDF0C9C1CEF0F5EC73
:1033680008F00001C951E127CA51E223DFC0F6FF86
:10337800E0C0F7FFF86A0800F5500009D8A4C7EFC5
:1033880019F0C9EF19F0A7EF19F0E1C0C4F1E2C0D4
:10339800C5F11200BF0E226EFF0E236E20C024F06E
:1033A80021C025F0225024262350252225500AE149
:1033B8001A0E245CD8A0E3EF19F0E6EF19F0010E1D
:1033C800E7EF19F0000E266E276A26502710D8B4AA
:1033D800F0EF19F0F2EF19F0F9EF19F0200E2010C4
:1033E800206E2150216EFDEF19F020C020F021C081
:1033F80021F012001CC020F01DC021F01AC022F0DC
:103408001BC023F020501E6E21501F6E204A212A17
:103418001EC0F6FF1FC0F7FF000EF86E22C0D9FFCE
:1034280023C0DAFF224A232A0E0EF76403D00800CD
:10343800F55005D0F6CFE9FFF7CFEAFFEF50DF6E82
:10344800DF50D8A42AEF1AF02CEF1AF006EF1AF082
:103458001200280EC66E000EC56E000E1A6E120EF1
:103468001B6E7A0E1C6E000E1D6E27C060F028C001
:1034780061F029C062F02AC063F0020ED890000102
:103488006037613762376337E82E42EF1AF060C061
:103498001EF061C01FF062C020F063C021F064EC30
:1034A80018F01A04C86E000EC76E9486948812002D
:1034B800CE0E0101D46F010ED56FCAC1D6F1CBC1B2
:1034C800D7F1000ED96F000ED86F000EDB6F000E1B
:1034D800DA6FD60EC46F010EC56FCCC1C6F1CDC16F
:1034E800C7F1D40EC86F010EC96F9CEC19F0010129
:1034F800D851CA25D96ED951CB21DA6E000EDF6EAC
:103508001200010E206E200E1A181B10D8B48FEF6F
:103518001AF091EF1AF0AAEF1AF0F70E1C6EFF0ED0
:103528001D6E1AC01EF01BC01FF01C501E261D5019
:103538001F221F5009E1050E1E5CD8A0A6EF1AF045
:10354800A8EF1AF0AAEF1AF0000E206E20C01AF0A9
:103558001B6A1200FE0EF66E390EF76E000EF86E3C
:1035680001EEDCF010EE11F00900F5CFEEFFE550AA
:10357800E150FAE101EE00F0C40EEE6AE806FDE162
:1035880000EEE1F0120EEE6AE806FDE100EE2EF024
:10359800180EEE6AE806FDE146904692000170EFCB
:1035A80015F0000E00017D1B000E7E1B000E7F1B18
:1035B800800E801B79C01AF07AC01BF07BC01CF00B
:1035C8007CC01DF07DC01EF07EC01FF07FC020F0C3
:1035D80080C021F095EC06F01AC079F01BC07AF093
:1035E8001CC07BF01DC07CF01200000E296E000E7E
:1035F800286E0AEF1BF027C01AF01B6A25C01CF0C2
:1036080026C01DF0D7EC15F0284A292A2850232473
:10361800D96E29502420DA6EDF50276E2750D8A49F
:1036280018EF1BF01AEF1BF0FFEF1AF0120020EE54
:1036380002F00A50D9260B50DA22DECF01F0DDCF96
:1036480002F00AC0D9FF0BC0DAFFDECF03F0DDCFEE
:1036580004F0CEEC1CF0000E066E000E076E000E95
:10366800086E000E096EE0EC1CF0010E120020EE50
:1036780002F00A50D9260B50DA22DECF01F0DDCF56
:1036880002F00AC0D9FF0BC0DAFFDECF03F0DDCFAE
:1036980004F0CEEC1CF0000E066E000E076E000E55
:1036A800086E000E096EE0EC1CF0010E1200BF0E51
:1036B8001C6EFF0E1D6E1AC01EF01BC01FF01C50A2
:1036C8001E261D501F221F500AE11A0E1E5CD8A08C
:1036D80070EF1BF073EF1BF0010E74EF1BF0000E80
:1036E8001A6E1B6A12001A501B101C101D10D8B439
:1036F80080EF1BF082EF1BF08AEF1BF0000E1A1A06
:10370800000E1B1A000E1C1A800E1D1A1AC01AF081
:103718001BC01BF01CC01CF01DC01DF01200D00EF9
:103728001C6EFF0E1D6E1AC01EF01BC01FF01C5031
:103738001E261D501F221F500AE10A0E1E5CD8A02B
:10374800A8EF1BF0ABEF1BF0010EACEF1BF0000E67
:103758001A6E1B6A12001AC01CF01BC01DF0B7EFCE
:103768001BF01A4A1B2A1AC0D9FF1BC0DAFFDF5008
:10377800D8A4C1EF1BF0C3EF1BF0B5EF1BF01C5032
:103788001A5C1A6E1D501B581B6E1200BBEC1CF005
:10379800C586BBEC1CF0C9CF1DF01E6ABBEC1CF043
:1037A8001B501C10D8B4DBEF1BF0DEEF1BF0C58AF2
:1037B800DFEF1BF0C59AC5881DC01BF01EC01CF0AA
:1037C80012000AC001F00BC002F0000E046E010ED8
:1037D800036ECEEC1CF0000E066E000E076E000E97
:1037E800086E000E096EE0EC1CF0030E12000AC011
:1037F80001F00BC002F0000E046E020E036ECEEC58
:103808001CF0000E066E000E076E000E086E000E0D
:10381800096EE0EC1CF0010E12000AC001F00BC0AA
:1038280002F0000E046E010E036ECEEC1CF0000ECA
:10383800066E000E076E000E086E000E096EE0ECB4
:103848001CF0010E12000AC001F00BC002F0000EBD
:10385800046E020E036ECEEC1CF0000E066E000E17
:10386800076E000E086E000E096EE0EC1CF0030EE9
:1038780012000AC001F00BC002F0000E046E020E26
:10388800036ECEEC1CF0000E066E000E076E000EE6
:10389800086E000E096EE0EC1CF0010E12000AC062
:1038A80001F00BC002F0000E046E010E036ECEECA8
:1038B8001CF0000E066E000E076E000E086E000E5D
:1038C800096EE0EC1CF0010E12000AC001F00BC0FA
:1038D80002F0000E046E010E036ECEEC1CF0000E1A
:1038E800066E000E076E000E086E000E096EE0EC04
:1038F8001CF0030E12000AC001F00BC002F0000E0B
:10390800046E020E036ECEEC1CF0000E066E000E66
:10391800076E000E086E000E096EE0EC1CF0030E38
:103928001200000E896E000E8A6E000E8B6EEF0E6E
:10393800926E936894681F0E0F015D6F070E5C6F9F
:10394800000E5B6FF18E12001A501C02F3CF1EF0AE
:10395800F4CF1FF01A501D02F3501F261B501C02F3
:10396800F3501F261EC01AF01FC01BF01200C7B468
:10397800C0EF1CF0C2EF1CF0BBEF1CF0C5CF1AF073
:103988001F0E1A16D8A4CBEF1CF0CDEF1CF0BBEF1E
:103998001CF01200010173A7D4EF1CF0D6EF1CF045
:1039A800DFEF1CF001C06DF102C06EF103C06FF1D2
:1039B80004C070F17397120006C001F007C002F04E
:1039C80008C003F009C004F0000EF4EC18F012006F
:1039D800C5BCF1EF1CF0F4EF1CF0010EF5EF1CF084
:1039E800000E1200600ED36E000ED26E000E9B6E9B
:1039F800000E9A6E12000000A1A2A3A4A5A6A7A873
:073A0800A9AAABACADAEAF03
:103A1000010173816C516C255EEC1DF0030E1200E8
:103A200001017381D8806C355EEC1DF0050E12002B
:103A30006BEC1DF095EC1CF0F6EC1CF01200010193
:103A40007393000E726F0E0E12000101739173ECEE
:103A50001DF0040E120001017393000E726F0E0E22
:103A60001200BBEC1CF01BC0C9FF1200BBEC1CF029
:103A7000C5841200BBEC1CF0C5801200BBEC1CF02E
:103A8000C582120068EC1DF0090E120068EC1DF0F2
:103A90000A0E120065EC1DF0050E120079EC1DF007
:103AA000000E12007BEC1DF0010E12007BEC1DF0ED
:103AB000020E12007BEC1DF0010E1200016E01C01F
:103AC000C9FF120031EC19F01200C59AC588120026
:103AD000C58AC5881200D09E12009E9612009E864E
:103AE0001200C9501200C5861200040E1200000E0A
:0C3AF0001200C5841200C58212001200F2
:10FD3A0000563A203A103A042E22304A3A6C31B42C
:10FD4A003AAC3AA43A9C3A943A8C3A843A3E3AD239
:10FD5A0032000000000000005F00000007000700FA
:10FD6A00147F147F14242A7F2A122313086462360C
:10FD7A00495522500005030000001C2241000041A1
:10FD8A00221C0014083E081408083E0808005030D7
:10FD9A000000080808080800606000002010080435
:10FDAA00023E5149453E00427F4000426151494668
:10FDBA002141454B311814127F1027454545393CDE
:10FDCA004A49493001710905033649494936064904
:10FDDA0049291E0036360000005636000008142253
:10FDEA004100141414141400412214080201510988
:10FDFA0006324979413E7E1111117E7F49494936C1
:10FE0A003E414141227F4141221C7F494949417F6C
:10FE1A00090909013E4149497A7F0808087F0041DA
:10FE2A007F41002040413F017F081422417F40402A
:10FE3A0040407F020C027F7F0408107F3E4141410F
:10FE4A003E7F090909063E4151215E7F091929466B
:10FE5A00464949493101017F01013F4040403F1F66
:10FE6A002040201F3F4038403F63140814630708AE
:10FE7A007008076151494543007F41410002040867
:10FE8A0010200041417F000402010204404040402A
:10FE9A0040000102040020545454787F48444438F6
:10FEAA003844444420384444487F38545454180849
:10FEBA007E0901020C5252523E7F08040478004423
:10FECA007D40002040443D007F1028440000417FCF
:10FEDA0040007C041804787C0804047838444444BC
:10FEEA00387C14141408081414187C7C08040408B8
:10FEFA004854545420043F4440203C4040207C1C39
:10FF0A002040201C3C4030403C44281028440C50DF
:10FF1A0050503C4464544C44000836410000007F71
:10FF2A0000000041360800100808100878464146CB
:10FF3A00782D2D2D2D2D2D2D2D2D2D2D2D2D2D2D9C
:10FF4A002D2D2D2D2D2D2D2D2D2D2D2D2D2D2D2DD7
:10FF5A002D2D2D2D2D2D2D2D2D2D2D2D2D2D2D2DC7
:10FF6A000A0D000A4461746120746F20626520776B
:10FF7A0072697474656E20746F20454550524F4DF6
:10FF8A003A0A0A0D00454550524F4D2048696768A4
:10FF9A0020416464726573733A307825780A0D00DB
:10FFAA00454550524F4D204C6F772041646472652D
:10FFBA0073733A307825780A0D000A0D4545505278
:10FFCA004F4D205265616420446174613A0A0A0DFA
:10FFDA000030782578202000252E326600252E3321
:10FFEA006600494E46004E414E00696E66006E61DB
:06FFFA006E006C660000C1
:020000040020DA
:08000000FFFFFFFFFFFFFFFF00
:020000040030CA
:0E00000015087F7CFF8991FF0FC00FE00F40B5
:00000001FF
